:020000040800F2
:100000000080012069020008B9020008B902000856
:10001000B9020008B9020008B90200080000000097
:10002000000000000000000000000000B90200080D
:10003000B902000800000000B9020008B902000877
:1000400000000000B9020008B9020008B902000867
:10005000B9020008B9020008B9020008B902000894
:10006000B9020008B9020008B9020008B902000884
:10007000B9020008B9020008B9020008B902000874
:10008000B9020008B9020008B90200080000000027
:10009000000000000000000000000000B90200089D
:1000A000B9020008B9020008B9020008B902000844
:1000B000B9020008B9020008B9020008B902000834
:1000C000B9020008B9020008B9020008B902000824
:1000D000B9020008B9020008B902000800000000D7
:1000E000B9020008B9020008B902000800000000C7
:1000F000000000000000000000000000B90200083D
:1001000000000000B9020008B9020008B9020008A6
:1001100000000000000000000000000000000000DF
:10012000B9020008B9020008B9020008B9020008C3
:10013000B9020008000000000000000000000000FC
:10014000000000000000000000000000B9020008EC
:10015000B9020008B9020008B9020008B902000893
:10016000B9020008B9020008000000000000000009
:10017000000000000000000000000000000000007F
:10018000000000000000000000000000000000006F
:04019000B9020008A8
:1001940010B5054C237833B9044B13B10448AFF3BD
:1001A40000800123237010BD000000200000000027
:1001B4000403000808B5034B1BB103490348AFF31C
:1001C400008008BD000000000400002004030008B3
:1001D40080B487B000AF1E4B7B617B691B6843F022
:1001E40002027B691A607B691B6843F004027B6925
:1001F4001A60184B3B613B691B6823F040623B6902
:100204001A603B691B6843F080623B691A60124BB9
:10021400FB60124BBB60BB681B6823F04062BB6889
:100224001A600F4B7B607B681B6803F40053002B40
:1002340006D0FB681B6843F40052FB681A60F2E7BF
:10024400FB681B6823F40052FB681A60EBE700BFED
:100254003038024000040240140402400008024006
:10026400100802400D488546AFF300800C480D4944
:100274000D4A002302E0D458C4500433C4188C42FD
:10028400F9D30A4A0A4C002301E013600432A24263
:10029400FBD300F011F8FFF79BFFFEE7008001207D
:1002A40000000020000000202403000800000020BB
:1002B4001C000020FEE7000070B50D4D0D4C641BC2
:1002C400A4100026A64209D10B4D0C4C00F018F8DE
:1002D400641BA4100026A64205D170BD55F8043B4A
:1002E40098470136EEE755F8043B98470136F2E7A4
:1002F4001C0300081C0300081C030008200300085A
:10030400F8B500BFF8BC08BC9E467047F8B500BFFE
:08031400F8BC08BC9E467047CE
:04031C00B90100081B
:04032000950100083B
:040000050800026984
:00000001FF
